{
  "contractName": "Market",
  "abi": [
    {
      "anonymous": false,
      "inputs": [
        {
          "indexed": false,
          "internalType": "uint256",
          "name": "listingId",
          "type": "uint256"
        },
        {
          "indexed": false,
          "internalType": "address",
          "name": "sender",
          "type": "address"
        }
      ],
      "name": "Cancel",
      "type": "event"
    },
    {
      "anonymous": false,
      "inputs": [
        {
          "indexed": false,
          "internalType": "uint256",
          "name": "listingId",
          "type": "uint256"
        },
        {
          "indexed": false,
          "internalType": "address",
          "name": "sender",
          "type": "address"
        },
        {
          "indexed": false,
          "internalType": "address",
          "name": "token",
          "type": "address"
        },
        {
          "indexed": false,
          "internalType": "uint256",
          "name": "tokenId",
          "type": "uint256"
        },
        {
          "indexed": false,
          "internalType": "uint256",
          "name": "price",
          "type": "uint256"
        }
      ],
      "name": "Listed",
      "type": "event"
    },
    {
      "anonymous": false,
      "inputs": [
        {
          "indexed": false,
          "internalType": "uint256",
          "name": "listingId",
          "type": "uint256"
        },
        {
          "indexed": false,
          "internalType": "address",
          "name": "sender",
          "type": "address"
        },
        {
          "indexed": false,
          "internalType": "address",
          "name": "token",
          "type": "address"
        },
        {
          "indexed": false,
          "internalType": "uint256",
          "name": "tokenId",
          "type": "uint256"
        },
        {
          "indexed": false,
          "internalType": "uint256",
          "name": "price",
          "type": "uint256"
        }
      ],
      "name": "Sale",
      "type": "event"
    },
    {
      "inputs": [
        {
          "internalType": "uint256",
          "name": "price",
          "type": "uint256"
        }
      ],
      "name": "checkFeeListToken",
      "outputs": [
        {
          "internalType": "uint256",
          "name": "",
          "type": "uint256"
        }
      ],
      "stateMutability": "pure",
      "type": "function",
      "constant": true
    },
    {
      "inputs": [
        {
          "internalType": "address",
          "name": "token",
          "type": "address"
        },
        {
          "internalType": "uint256",
          "name": "tokenId",
          "type": "uint256"
        },
        {
          "internalType": "uint256",
          "name": "price",
          "type": "uint256"
        }
      ],
      "name": "listToken",
      "outputs": [],
      "stateMutability": "payable",
      "type": "function",
      "payable": true
    },
    {
      "inputs": [
        {
          "internalType": "uint256",
          "name": "listingId",
          "type": "uint256"
        }
      ],
      "name": "getListing",
      "outputs": [
        {
          "components": [
            {
              "internalType": "enum Market.ListingStatus",
              "name": "status",
              "type": "uint8"
            },
            {
              "internalType": "address",
              "name": "seller",
              "type": "address"
            },
            {
              "internalType": "address",
              "name": "token",
              "type": "address"
            },
            {
              "internalType": "uint256",
              "name": "tokenId",
              "type": "uint256"
            },
            {
              "internalType": "uint256",
              "name": "price",
              "type": "uint256"
            }
          ],
          "internalType": "struct Market.Listing",
          "name": "",
          "type": "tuple"
        }
      ],
      "stateMutability": "view",
      "type": "function",
      "constant": true
    },
    {
      "inputs": [
        {
          "internalType": "uint256",
          "name": "listingId",
          "type": "uint256"
        }
      ],
      "name": "buyToken",
      "outputs": [],
      "stateMutability": "payable",
      "type": "function",
      "payable": true
    },
    {
      "inputs": [
        {
          "internalType": "uint256",
          "name": "listingId",
          "type": "uint256"
        }
      ],
      "name": "cancel",
      "outputs": [],
      "stateMutability": "nonpayable",
      "type": "function"
    }
  ],
  "bytecode": "0x60806040526000805534801561001457600080fd5b50611105806100246000396000f3fe60806040526004361061004a5760003560e01c8063107a274a1461004f5780632d296bf11461008c57806340e58ee5146100a85780637e07590d146100d15780638735ab27146100ed575b600080fd5b34801561005b57600080fd5b5061007660048036038101906100719190610afa565b61012a565b6040516100839190610c56565b60405180910390f35b6100a660048036038101906100a19190610afa565b610252565b005b3480156100b457600080fd5b506100cf60048036038101906100ca9190610afa565b61055d565b005b6100eb60048036038101906100e69190610c9d565b6107a3565b005b3480156100f957600080fd5b50610114600480360381019061010f9190610afa565b610a2a565b6040516101219190610cff565b60405180910390f35b610132610a52565b600160008381526020019081526020016000206040518060a00160405290816000820160009054906101000a900460ff16600281111561017557610174610b27565b5b600281111561018757610186610b27565b5b81526020016000820160019054906101000a900473ffffffffffffffffffffffffffffffffffffffff1673ffffffffffffffffffffffffffffffffffffffff1673ffffffffffffffffffffffffffffffffffffffff1681526020016001820160009054906101000a900473ffffffffffffffffffffffffffffffffffffffff1673ffffffffffffffffffffffffffffffffffffffff1673ffffffffffffffffffffffffffffffffffffffff168152602001600282015481526020016003820154815250509050919050565b60006001600083815260200190815260200160002090508060000160019054906101000a900473ffffffffffffffffffffffffffffffffffffffff1673ffffffffffffffffffffffffffffffffffffffff163373ffffffffffffffffffffffffffffffffffffffff1614156102fc576040517f08c379a00000000000000000000000000000000000000000000000000000000081526004016102f390610d77565b60405180910390fd5b600060028111156103105761030f610b27565b5b8160000160009054906101000a900460ff16600281111561033457610333610b27565b5b14610374576040517f08c379a000000000000000000000000000000000000000000000000000000000815260040161036b90610de3565b60405180910390fd5b80600301543410156103bb576040517f08c379a00000000000000000000000000000000000000000000000000000000081526004016103b290610e4f565b60405180910390fd5b60018160000160006101000a81548160ff021916908360028111156103e3576103e2610b27565b5b02179055508060010160009054906101000a900473ffffffffffffffffffffffffffffffffffffffff1673ffffffffffffffffffffffffffffffffffffffff166323b872dd303384600201546040518463ffffffff1660e01b815260040161044d93929190610e7e565b600060405180830381600087803b15801561046757600080fd5b505af115801561047b573d6000803e3d6000fd5b505050508060000160019054906101000a900473ffffffffffffffffffffffffffffffffffffffff1673ffffffffffffffffffffffffffffffffffffffff166108fc82600301549081150290604051600060405180830381858888f193505050501580156104ed573d6000803e3d6000fd5b507ff3debaf22196a6ddf52a60fa71058cd7edf5e25bb98f4e96c994a5d4a9b0dd3e82338360010160009054906101000a900473ffffffffffffffffffffffffffffffffffffffff1684600201548560030154604051610551959493929190610eb5565b60405180910390a15050565b60006001600083815260200190815260200160002090508060000160019054906101000a900473ffffffffffffffffffffffffffffffffffffffff1673ffffffffffffffffffffffffffffffffffffffff163373ffffffffffffffffffffffffffffffffffffffff1614610606576040517f08c379a00000000000000000000000000000000000000000000000000000000081526004016105fd90610f54565b60405180910390fd5b6000600281111561061a57610619610b27565b5b8160000160009054906101000a900460ff16600281111561063e5761063d610b27565b5b1461067e576040517f08c379a000000000000000000000000000000000000000000000000000000000815260040161067590610de3565b60405180910390fd5b60028160000160006101000a81548160ff021916908360028111156106a6576106a5610b27565b5b02179055508060010160009054906101000a900473ffffffffffffffffffffffffffffffffffffffff1673ffffffffffffffffffffffffffffffffffffffff166323b872dd303384600201546040518463ffffffff1660e01b815260040161071093929190610e7e565b600060405180830381600087803b15801561072a57600080fd5b505af115801561073e573d6000803e3d6000fd5b505050507f8dd3c361eb2366ff27c2db0eb07b9261f1d052570742ab8c9a0c326f37aa576d828260000160019054906101000a900473ffffffffffffffffffffffffffffffffffffffff16604051610797929190610f74565b60405180910390a15050565b8273ffffffffffffffffffffffffffffffffffffffff166323b872dd3330856040518463ffffffff1660e01b81526004016107e093929190610e7e565b600060405180830381600087803b1580156107fa57600080fd5b505af115801561080e573d6000803e3d6000fd5b505050503373ffffffffffffffffffffffffffffffffffffffff166108fc6032836108399190610ffb565b9081150290604051600060405180830381858888f19350505050158015610864573d6000803e3d6000fd5b5060006040518060a001604052806000600281111561088657610885610b27565b5b81526020013373ffffffffffffffffffffffffffffffffffffffff1681526020018573ffffffffffffffffffffffffffffffffffffffff168152602001848152602001670de0b6b3a7640000846108dd919061102c565b81525090506000808154809291906108f490611086565b919050555080600160008054815260200190815260200160002060008201518160000160006101000a81548160ff0219169083600281111561093957610938610b27565b5b021790555060208201518160000160016101000a81548173ffffffffffffffffffffffffffffffffffffffff021916908373ffffffffffffffffffffffffffffffffffffffff16021790555060408201518160010160006101000a81548173ffffffffffffffffffffffffffffffffffffffff021916908373ffffffffffffffffffffffffffffffffffffffff16021790555060608201518160020155608082015181600301559050507f723f73331eaee88eec7fc68ef60ab6ed15e4b90d0472b55eb92fa43910bab6dd60005433868686604051610a1c959493929190610eb5565b60405180910390a150505050565b6000662386f26fc10000600283610a41919061102c565b610a4b919061102c565b9050919050565b6040518060a0016040528060006002811115610a7157610a70610b27565b5b8152602001600073ffffffffffffffffffffffffffffffffffffffff168152602001600073ffffffffffffffffffffffffffffffffffffffff16815260200160008152602001600081525090565b600080fd5b6000819050919050565b610ad781610ac4565b8114610ae257600080fd5b50565b600081359050610af481610ace565b92915050565b600060208284031215610b1057610b0f610abf565b5b6000610b1e84828501610ae5565b91505092915050565b7f4e487b7100000000000000000000000000000000000000000000000000000000600052602160045260246000fd5b60038110610b6757610b66610b27565b5b50565b6000819050610b7882610b56565b919050565b6000610b8882610b6a565b9050919050565b610b9881610b7d565b82525050565b600073ffffffffffffffffffffffffffffffffffffffff82169050919050565b6000610bc982610b9e565b9050919050565b610bd981610bbe565b82525050565b610be881610ac4565b82525050565b60a082016000820151610c046000850182610b8f565b506020820151610c176020850182610bd0565b506040820151610c2a6040850182610bd0565b506060820151610c3d6060850182610bdf565b506080820151610c506080850182610bdf565b50505050565b600060a082019050610c6b6000830184610bee565b92915050565b610c7a81610bbe565b8114610c8557600080fd5b50565b600081359050610c9781610c71565b92915050565b600080600060608486031215610cb657610cb5610abf565b5b6000610cc486828701610c88565b9350506020610cd586828701610ae5565b9250506040610ce686828701610ae5565b9150509250925092565b610cf981610ac4565b82525050565b6000602082019050610d146000830184610cf0565b92915050565b600082825260208201905092915050565b7f53656c6c65722063616e6e6f7420626520627579657200000000000000000000600082015250565b6000610d61601683610d1a565b9150610d6c82610d2b565b602082019050919050565b60006020820190508181036000830152610d9081610d54565b9050919050565b7f4c697374696e67206973206e6f74206163746976650000000000000000000000600082015250565b6000610dcd601583610d1a565b9150610dd882610d97565b602082019050919050565b60006020820190508181036000830152610dfc81610dc0565b9050919050565b7f496e73756666696369656e74207061796d656e74000000000000000000000000600082015250565b6000610e39601483610d1a565b9150610e4482610e03565b602082019050919050565b60006020820190508181036000830152610e6881610e2c565b9050919050565b610e7881610bbe565b82525050565b6000606082019050610e936000830186610e6f565b610ea06020830185610e6f565b610ead6040830184610cf0565b949350505050565b600060a082019050610eca6000830188610cf0565b610ed76020830187610e6f565b610ee46040830186610e6f565b610ef16060830185610cf0565b610efe6080830184610cf0565b9695505050505050565b7f4f6e6c792073656c6c65722063616e2063616e63656c206c697374696e670000600082015250565b6000610f3e601e83610d1a565b9150610f4982610f08565b602082019050919050565b60006020820190508181036000830152610f6d81610f31565b9050919050565b6000604082019050610f896000830185610cf0565b610f966020830184610e6f565b9392505050565b7f4e487b7100000000000000000000000000000000000000000000000000000000600052601260045260246000fd5b7f4e487b7100000000000000000000000000000000000000000000000000000000600052601160045260246000fd5b600061100682610ac4565b915061101183610ac4565b92508261102157611020610f9d565b5b828204905092915050565b600061103782610ac4565b915061104283610ac4565b9250817fffffffffffffffffffffffffffffffffffffffffffffffffffffffffffffffff048311821515161561107b5761107a610fcc565b5b828202905092915050565b600061109182610ac4565b91507fffffffffffffffffffffffffffffffffffffffffffffffffffffffffffffffff8214156110c4576110c3610fcc565b5b60018201905091905056fea2646970667358221220c64c33b3759fb930530e5f0e754f2c3f6310a3b15e464d45d8133ded01bda1bf64736f6c634300080b0033",
  "immutableReferences": {},
  "source": "pragma solidity >= 0.7.0 < 0.9.0;\r\n\r\nimport \"../node_modules/@openzeppelin/contracts/token/ERC721/IERC721.sol\";\r\n\r\ncontract Market {\r\n\r\n    enum ListingStatus {\r\n        Active,     // C th mua\r\n        Sold,       //  bn \r\n        Cancelled   //  tho khi ch\r\n    }\r\n\r\n    struct Listing {            // Item trong danh sch\r\n        ListingStatus status;   // Trng thi ca \r\n        address seller;         // a ch v ca ngi bn\r\n        address token;          // a ch ca NFT\r\n        uint tokenId;           // ID ca token\r\n        uint price;             // Gi ca token trn sn\r\n    }\r\n\r\n    event Listed(\r\n        uint listingId,\r\n        address sender,\r\n        address token,\r\n        uint tokenId,\r\n        uint price\r\n    );\r\n\r\n    event Sale(\r\n        uint listingId,\r\n        address sender,\r\n        address token,\r\n        uint tokenId,\r\n        uint price\r\n    );\r\n\r\n    event Cancel(\r\n        uint listingId,\r\n        address sender\r\n    );\r\n\r\n    // S lng NFT  c a ln sn\r\n    uint private _listingId = 0;\r\n    // Map cha cc NFT\r\n    mapping(uint => Listing) private _listings;\r\n\r\n    function checkFeeListToken(uint price) public pure returns(uint) {\r\n        return price * 2 * 10**16;\r\n    }\r\n\r\n    // Hm thc hin lnh a token ln sn\r\n    function listToken(address token, uint tokenId, uint price) external payable {\r\n        // Chuyn NFT n a ch ca Market\r\n        IERC721(token).transferFrom(msg.sender, address(this), tokenId);\r\n        \r\n        payable(msg.sender).transfer(price / 50);\r\n        // To mt item \r\n        // Trng thi NFT l C th mua\r\n        // a ch ngi bn l v ca ngi thc hin lnh listToken\r\n        Listing memory listing = Listing(\r\n            ListingStatus.Active,\r\n            msg.sender, \r\n            token, \r\n            tokenId, \r\n            price * 1 ether\r\n        );\r\n\r\n        // Tng s lng NFT  ln sn\r\n        _listingId++;\r\n        // Thm item vo list item c trn sn\r\n        _listings[_listingId] = listing;\r\n\r\n        // Thng bo event  list sn\r\n        emit Listed (\r\n            _listingId,\r\n            msg.sender,\r\n            token,\r\n            tokenId,\r\n            price\r\n        );\r\n    }\r\n\r\n    function getListing(uint listingId) public view returns (Listing memory) {\r\n        return _listings[listingId];\r\n    }\r\n\r\n    // Hm thc hin lnh mua token\r\n    // Lnh \"msg.value\" v \"callvalue()\" ch c th thc hin nu \r\n    //      l hm \"payable\" hoc \"internal\" hm\r\n    // Cn ly s d trong v  kim tra xem c   mua token\r\n    //      hay khng\r\n    function buyToken(uint listingId) external payable{\r\n        // Chn vo NFT cn mua\r\n        Listing storage listing = _listings[listingId];\r\n\r\n        // Ngi mua phi khc ngi bn\r\n        // Kim tra bng cch so snh a ch ca ngi thc hin lnh mua\r\n        //      vi a ngi bn\r\n        // Nu sai th thng bo \"Ngi bn khng th l ngi mua\"\r\n        require(msg.sender != listing.seller, \"Seller cannot be buyer\");\r\n\r\n        // Item phi trong trng thi sn sng  mua\r\n        // Nu sn phm khng trong trng thi c th mua\r\n        //      thng bo \"Danh sch khng hot ng\r\n        require(listing.status == ListingStatus.Active, \"Listing is not active\");\r\n        \r\n        // S tin trong v ngi mua phi ln hn hoc bng\r\n        //      vi gi ca NFT, nu khng\r\n        //      thng bp \"Khng   thanh ton\"  \r\n        require(msg.value >= listing.price, \"Insufficient payment\");\r\n\r\n        // Chuyn trng thi NFT v  mua\r\n        listing.status = ListingStatus.Sold;\r\n        \r\n        // Nu tt c cc kim tra trn ng ngha l ngi dng \r\n        //      iu kin mua, ta chuyn token n v ca ngi mua\r\n        IERC721(listing.token).transferFrom(address(this), msg.sender, listing.tokenId);\r\n\r\n        // Chuyn tin cho ngi bn token\r\n        // S tin chuyn bng vi gi token lc list sn\r\n        payable(listing.seller).transfer(listing.price);\r\n\r\n\r\n        // Thng bo event  bn\r\n        emit Sale (\r\n            listingId,\r\n            msg.sender,\r\n            listing.token,\r\n            listing.tokenId,\r\n            listing.price\r\n        );\r\n    } \r\n\r\n    // Hm thu hi NFT khi list\r\n    function cancel(uint listingId) public {\r\n        // Chn vo NFT cn b khi sn\r\n        Listing storage listing = _listings[listingId];\r\n        \r\n        // Ngi hy NFT khi list phi l ngi bn\r\n        // Nu khng, thng bo \"Ch ngi bn mi \r\n        //      c th hy b danh sch\"\r\n        require(msg.sender == listing.seller, \"Only seller can cancel listing\");\r\n        // NFT phi ang  trng thi sn sng\r\n        // Nu khng, thng bo \"Danh sch khng hot ng\"\r\n        require(listing.status  == ListingStatus.Active, \"Listing is not active\");\r\n\r\n        // Nu kim tra tt c thnh cng\r\n        // Trng thi ca NFT trn sn tr thnh  a v v\r\n        listing.status = ListingStatus.Cancelled;\r\n\r\n        // NFT c tr v v ngi bn\r\n        IERC721(listing.token).transferFrom(address(this), msg.sender, listing.tokenId);\r\n\r\n        // Thng bo event  cancel\r\n        emit Cancel(listingId, listing.seller);\r\n    }\r\n}",
  "sourcePath": "C:\\Users\\AnhTu\\Documents\\PJ\\NFT-Market\\contracts\\Market.sol",
  "compiler": {
    "name": "solc",
    "version": "0.8.11+commit.d7f03943.Emscripten.clang"
  },
  "schemaVersion": "3.4.5",
  "updatedAt": "2022-02-25T21:56:00.126Z",
  "networkType": "ethereum",
  "devdoc": {
    "kind": "dev",
    "methods": {},
    "version": 1
  },
  "userdoc": {
    "kind": "user",
    "methods": {},
    "version": 1
  }
}