{
  "contractName": "Market",
  "abi": [
    {
      "anonymous": false,
      "inputs": [
        {
          "indexed": false,
          "internalType": "uint256",
          "name": "listingId",
          "type": "uint256"
        },
        {
          "indexed": false,
          "internalType": "address",
          "name": "sender",
          "type": "address"
        }
      ],
      "name": "Cancel",
      "type": "event"
    },
    {
      "anonymous": false,
      "inputs": [
        {
          "indexed": false,
          "internalType": "uint256",
          "name": "listingId",
          "type": "uint256"
        },
        {
          "indexed": false,
          "internalType": "address",
          "name": "sender",
          "type": "address"
        },
        {
          "indexed": false,
          "internalType": "address",
          "name": "token",
          "type": "address"
        },
        {
          "indexed": false,
          "internalType": "uint256",
          "name": "tokenId",
          "type": "uint256"
        },
        {
          "indexed": false,
          "internalType": "uint256",
          "name": "price",
          "type": "uint256"
        }
      ],
      "name": "Listed",
      "type": "event"
    },
    {
      "anonymous": false,
      "inputs": [
        {
          "indexed": false,
          "internalType": "uint256",
          "name": "listingId",
          "type": "uint256"
        },
        {
          "indexed": false,
          "internalType": "address",
          "name": "sender",
          "type": "address"
        },
        {
          "indexed": false,
          "internalType": "address",
          "name": "token",
          "type": "address"
        },
        {
          "indexed": false,
          "internalType": "uint256",
          "name": "tokenId",
          "type": "uint256"
        },
        {
          "indexed": false,
          "internalType": "uint256",
          "name": "price",
          "type": "uint256"
        }
      ],
      "name": "Sale",
      "type": "event"
    },
    {
      "inputs": [
        {
          "internalType": "address",
          "name": "token",
          "type": "address"
        },
        {
          "internalType": "uint256",
          "name": "tokenId",
          "type": "uint256"
        },
        {
          "internalType": "uint256",
          "name": "price",
          "type": "uint256"
        }
      ],
      "name": "listToken",
      "outputs": [],
      "stateMutability": "nonpayable",
      "type": "function"
    },
    {
      "inputs": [
        {
          "internalType": "uint256",
          "name": "listingId",
          "type": "uint256"
        }
      ],
      "name": "getListing",
      "outputs": [
        {
          "components": [
            {
              "internalType": "enum Market.ListingStatus",
              "name": "status",
              "type": "uint8"
            },
            {
              "internalType": "address",
              "name": "seller",
              "type": "address"
            },
            {
              "internalType": "address",
              "name": "token",
              "type": "address"
            },
            {
              "internalType": "uint256",
              "name": "tokenId",
              "type": "uint256"
            },
            {
              "internalType": "uint256",
              "name": "price",
              "type": "uint256"
            }
          ],
          "internalType": "struct Market.Listing",
          "name": "",
          "type": "tuple"
        }
      ],
      "stateMutability": "view",
      "type": "function",
      "constant": true
    },
    {
      "inputs": [
        {
          "internalType": "uint256",
          "name": "listingId",
          "type": "uint256"
        }
      ],
      "name": "buyToken",
      "outputs": [],
      "stateMutability": "payable",
      "type": "function",
      "payable": true
    },
    {
      "inputs": [
        {
          "internalType": "uint256",
          "name": "listingId",
          "type": "uint256"
        }
      ],
      "name": "cancel",
      "outputs": [],
      "stateMutability": "nonpayable",
      "type": "function"
    }
  ],
  "bytecode": "0x60806040526000805534801561001457600080fd5b50610fd4806100246000396000f3fe60806040526004361061003f5760003560e01c8063107a274a146100445780632d296bf11461008157806340e58ee51461009d5780637e07590d146100c6575b600080fd5b34801561005057600080fd5b5061006b60048036038101906100669190610a44565b6100ef565b6040516100789190610ba0565b60405180910390f35b61009b60048036038101906100969190610a44565b610217565b005b3480156100a957600080fd5b506100c460048036038101906100bf9190610a44565b610522565b005b3480156100d257600080fd5b506100ed60048036038101906100e89190610be7565b610768565b005b6100f761099c565b600160008381526020019081526020016000206040518060a00160405290816000820160009054906101000a900460ff16600281111561013a57610139610a71565b5b600281111561014c5761014b610a71565b5b81526020016000820160019054906101000a900473ffffffffffffffffffffffffffffffffffffffff1673ffffffffffffffffffffffffffffffffffffffff1673ffffffffffffffffffffffffffffffffffffffff1681526020016001820160009054906101000a900473ffffffffffffffffffffffffffffffffffffffff1673ffffffffffffffffffffffffffffffffffffffff1673ffffffffffffffffffffffffffffffffffffffff168152602001600282015481526020016003820154815250509050919050565b60006001600083815260200190815260200160002090508060000160019054906101000a900473ffffffffffffffffffffffffffffffffffffffff1673ffffffffffffffffffffffffffffffffffffffff163373ffffffffffffffffffffffffffffffffffffffff1614156102c1576040517f08c379a00000000000000000000000000000000000000000000000000000000081526004016102b890610c97565b60405180910390fd5b600060028111156102d5576102d4610a71565b5b8160000160009054906101000a900460ff1660028111156102f9576102f8610a71565b5b14610339576040517f08c379a000000000000000000000000000000000000000000000000000000000815260040161033090610d03565b60405180910390fd5b8060030154341015610380576040517f08c379a000000000000000000000000000000000000000000000000000000000815260040161037790610d6f565b60405180910390fd5b60018160000160006101000a81548160ff021916908360028111156103a8576103a7610a71565b5b02179055508060010160009054906101000a900473ffffffffffffffffffffffffffffffffffffffff1673ffffffffffffffffffffffffffffffffffffffff166323b872dd303384600201546040518463ffffffff1660e01b815260040161041293929190610dad565b600060405180830381600087803b15801561042c57600080fd5b505af1158015610440573d6000803e3d6000fd5b505050508060000160019054906101000a900473ffffffffffffffffffffffffffffffffffffffff1673ffffffffffffffffffffffffffffffffffffffff166108fc82600301549081150290604051600060405180830381858888f193505050501580156104b2573d6000803e3d6000fd5b507ff3debaf22196a6ddf52a60fa71058cd7edf5e25bb98f4e96c994a5d4a9b0dd3e82338360010160009054906101000a900473ffffffffffffffffffffffffffffffffffffffff1684600201548560030154604051610516959493929190610de4565b60405180910390a15050565b60006001600083815260200190815260200160002090508060000160019054906101000a900473ffffffffffffffffffffffffffffffffffffffff1673ffffffffffffffffffffffffffffffffffffffff163373ffffffffffffffffffffffffffffffffffffffff16146105cb576040517f08c379a00000000000000000000000000000000000000000000000000000000081526004016105c290610e83565b60405180910390fd5b600060028111156105df576105de610a71565b5b8160000160009054906101000a900460ff16600281111561060357610602610a71565b5b14610643576040517f08c379a000000000000000000000000000000000000000000000000000000000815260040161063a90610d03565b60405180910390fd5b60028160000160006101000a81548160ff0219169083600281111561066b5761066a610a71565b5b02179055508060010160009054906101000a900473ffffffffffffffffffffffffffffffffffffffff1673ffffffffffffffffffffffffffffffffffffffff166323b872dd303384600201546040518463ffffffff1660e01b81526004016106d593929190610dad565b600060405180830381600087803b1580156106ef57600080fd5b505af1158015610703573d6000803e3d6000fd5b505050507f8dd3c361eb2366ff27c2db0eb07b9261f1d052570742ab8c9a0c326f37aa576d828260000160019054906101000a900473ffffffffffffffffffffffffffffffffffffffff1660405161075c929190610ea3565b60405180910390a15050565b8273ffffffffffffffffffffffffffffffffffffffff166323b872dd3330856040518463ffffffff1660e01b81526004016107a593929190610dad565b600060405180830381600087803b1580156107bf57600080fd5b505af11580156107d3573d6000803e3d6000fd5b5050505060006040518060a00160405280600060028111156107f8576107f7610a71565b5b81526020013373ffffffffffffffffffffffffffffffffffffffff1681526020018573ffffffffffffffffffffffffffffffffffffffff168152602001848152602001670de0b6b3a76400008461084f9190610efb565b815250905060008081548092919061086690610f55565b919050555080600160008054815260200190815260200160002060008201518160000160006101000a81548160ff021916908360028111156108ab576108aa610a71565b5b021790555060208201518160000160016101000a81548173ffffffffffffffffffffffffffffffffffffffff021916908373ffffffffffffffffffffffffffffffffffffffff16021790555060408201518160010160006101000a81548173ffffffffffffffffffffffffffffffffffffffff021916908373ffffffffffffffffffffffffffffffffffffffff16021790555060608201518160020155608082015181600301559050507f723f73331eaee88eec7fc68ef60ab6ed15e4b90d0472b55eb92fa43910bab6dd6000543386868660405161098e959493929190610de4565b60405180910390a150505050565b6040518060a00160405280600060028111156109bb576109ba610a71565b5b8152602001600073ffffffffffffffffffffffffffffffffffffffff168152602001600073ffffffffffffffffffffffffffffffffffffffff16815260200160008152602001600081525090565b600080fd5b6000819050919050565b610a2181610a0e565b8114610a2c57600080fd5b50565b600081359050610a3e81610a18565b92915050565b600060208284031215610a5a57610a59610a09565b5b6000610a6884828501610a2f565b91505092915050565b7f4e487b7100000000000000000000000000000000000000000000000000000000600052602160045260246000fd5b60038110610ab157610ab0610a71565b5b50565b6000819050610ac282610aa0565b919050565b6000610ad282610ab4565b9050919050565b610ae281610ac7565b82525050565b600073ffffffffffffffffffffffffffffffffffffffff82169050919050565b6000610b1382610ae8565b9050919050565b610b2381610b08565b82525050565b610b3281610a0e565b82525050565b60a082016000820151610b4e6000850182610ad9565b506020820151610b616020850182610b1a565b506040820151610b746040850182610b1a565b506060820151610b876060850182610b29565b506080820151610b9a6080850182610b29565b50505050565b600060a082019050610bb56000830184610b38565b92915050565b610bc481610b08565b8114610bcf57600080fd5b50565b600081359050610be181610bbb565b92915050565b600080600060608486031215610c0057610bff610a09565b5b6000610c0e86828701610bd2565b9350506020610c1f86828701610a2f565b9250506040610c3086828701610a2f565b9150509250925092565b600082825260208201905092915050565b7f53656c6c65722063616e6e6f7420626520627579657200000000000000000000600082015250565b6000610c81601683610c3a565b9150610c8c82610c4b565b602082019050919050565b60006020820190508181036000830152610cb081610c74565b9050919050565b7f4c697374696e67206973206e6f74206163746976650000000000000000000000600082015250565b6000610ced601583610c3a565b9150610cf882610cb7565b602082019050919050565b60006020820190508181036000830152610d1c81610ce0565b9050919050565b7f496e73756666696369656e74207061796d656e74000000000000000000000000600082015250565b6000610d59601483610c3a565b9150610d6482610d23565b602082019050919050565b60006020820190508181036000830152610d8881610d4c565b9050919050565b610d9881610b08565b82525050565b610da781610a0e565b82525050565b6000606082019050610dc26000830186610d8f565b610dcf6020830185610d8f565b610ddc6040830184610d9e565b949350505050565b600060a082019050610df96000830188610d9e565b610e066020830187610d8f565b610e136040830186610d8f565b610e206060830185610d9e565b610e2d6080830184610d9e565b9695505050505050565b7f4f6e6c792073656c6c65722063616e2063616e63656c206c697374696e670000600082015250565b6000610e6d601e83610c3a565b9150610e7882610e37565b602082019050919050565b60006020820190508181036000830152610e9c81610e60565b9050919050565b6000604082019050610eb86000830185610d9e565b610ec56020830184610d8f565b9392505050565b7f4e487b7100000000000000000000000000000000000000000000000000000000600052601160045260246000fd5b6000610f0682610a0e565b9150610f1183610a0e565b9250817fffffffffffffffffffffffffffffffffffffffffffffffffffffffffffffffff0483118215151615610f4a57610f49610ecc565b5b828202905092915050565b6000610f6082610a0e565b91507fffffffffffffffffffffffffffffffffffffffffffffffffffffffffffffffff821415610f9357610f92610ecc565b5b60018201905091905056fea2646970667358221220578d19a993d5e8e8cb38072b690bfc2eb013c9bb07828bcce6cbcdcd1c274dba64736f6c634300080b0033",
  "immutableReferences": {},
  "source": "pragma solidity >= 0.7.0 < 0.9.0;\r\n\r\nimport \"../node_modules/@openzeppelin/contracts/token/ERC721/IERC721.sol\";\r\n\r\ncontract Market {\r\n\r\n    enum ListingStatus {\r\n        Active,     // C th mua\r\n        Sold,       //  bn \r\n        Cancelled   //  tho khi ch\r\n    }\r\n\r\n    struct Listing {            // Item trong danh sch\r\n        ListingStatus status;   // Trng thi ca \r\n        address seller;         // a ch v ca ngi bn\r\n        address token;          // a ch ca NFT\r\n        uint tokenId;           // ID ca token\r\n        uint price;             // Gi ca token trn sn\r\n    }\r\n\r\n    event Listed(\r\n        uint listingId,\r\n        address sender,\r\n        address token,\r\n        uint tokenId,\r\n        uint price\r\n    );\r\n\r\n    event Sale(\r\n        uint listingId,\r\n        address sender,\r\n        address token,\r\n        uint tokenId,\r\n        uint price\r\n    );\r\n\r\n    event Cancel(\r\n        uint listingId,\r\n        address sender\r\n    );\r\n\r\n    // S lng NFT  c a ln sn\r\n    uint private _listingId = 0;\r\n    // Map cha cc NFT\r\n    mapping(uint => Listing) private _listings;\r\n\r\n    // Hm thc hin lnh a token ln sn\r\n    function listToken(address token, uint tokenId, uint price) external {\r\n        // Chuyn NFT n a ch ca Market\r\n        IERC721(token).transferFrom(msg.sender, address(this), tokenId);\r\n\r\n        // To mt item \r\n        // Trng thi NFT l C th mua\r\n        // a ch ngi bn l v ca ngi thc hin lnh listToken\r\n        Listing memory listing = Listing(\r\n            ListingStatus.Active,\r\n            msg.sender, \r\n            token, \r\n            tokenId, \r\n            price * 1 ether\r\n        );\r\n\r\n        // Tng s lng NFT  ln sn\r\n        _listingId++;\r\n        // Thm item vo list item c trn sn\r\n        _listings[_listingId] = listing;\r\n\r\n        // Thng bo event  list sn\r\n        emit Listed (\r\n            _listingId,\r\n            msg.sender,\r\n            token,\r\n            tokenId,\r\n            price\r\n        );\r\n    }\r\n\r\n    function getListing(uint listingId) public view returns (Listing memory) {\r\n        return _listings[listingId];\r\n    }\r\n\r\n    // Hm thc hin lnh mua token\r\n    // Lnh \"msg.value\" v \"callvalue()\" ch c th thc hin nu \r\n    //      l hm \"payable\" hoc \"internal\" hm\r\n    // Cn ly s d trong v  kim tra xem c   mua token\r\n    //      hay khng\r\n    function buyToken(uint listingId) external payable{\r\n        // Chn vo NFT cn mua\r\n        Listing storage listing = _listings[listingId];\r\n\r\n        // Ngi mua phi khc ngi bn\r\n        // Kim tra bng cch so snh a ch ca ngi thc hin lnh mua\r\n        //      vi a ngi bn\r\n        // Nu sai th thng bo \"Ngi bn khng th l ngi mua\"\r\n        require(msg.sender != listing.seller, \"Seller cannot be buyer\");\r\n\r\n        // Item phi trong trng thi sn sng  mua\r\n        // Nu sn phm khng trong trng thi c th mua\r\n        //      thng bo \"Danh sch khng hot ng\r\n        require(listing.status == ListingStatus.Active, \"Listing is not active\");\r\n        \r\n        // S tin trong v ngi mua phi ln hn hoc bng\r\n        //      vi gi ca NFT, nu khng\r\n        //      thng bp \"Khng   thanh ton\"  \r\n        require(msg.value >= listing.price, \"Insufficient payment\");\r\n\r\n        // Chuyn trng thi NFT v  mua\r\n        listing.status = ListingStatus.Sold;\r\n        \r\n        // Nu tt c cc kim tra trn ng ngha l ngi dng \r\n        //      iu kin mua, ta chuyn token n v ca ngi mua\r\n        IERC721(listing.token).transferFrom(address(this), msg.sender, listing.tokenId);\r\n\r\n        // Chuyn tin cho ngi bn token\r\n        // S tin chuyn bng vi gi token lc list sn\r\n        payable(listing.seller).transfer(listing.price);\r\n\r\n\r\n        // Thng bo event  bn\r\n        emit Sale (\r\n            listingId,\r\n            msg.sender,\r\n            listing.token,\r\n            listing.tokenId,\r\n            listing.price\r\n        );\r\n    } \r\n\r\n    // Hm thu hi NFT khi list\r\n    function cancel(uint listingId) public {\r\n        // Chn vo NFT cn b khi sn\r\n        Listing storage listing = _listings[listingId];\r\n        \r\n        // Ngi hy NFT khi list phi l ngi bn\r\n        // Nu khng, thng bo \"Ch ngi bn mi \r\n        //      c th hy b danh sch\"\r\n        require(msg.sender == listing.seller, \"Only seller can cancel listing\");\r\n        // NFT phi ang  trng thi sn sng\r\n        // Nu khng, thng bo \"Danh sch khng hot ng\"\r\n        require(listing.status  == ListingStatus.Active, \"Listing is not active\");\r\n\r\n        // Nu kim tra tt c thnh cng\r\n        // Trng thi ca NFT trn sn tr thnh  a v v\r\n        listing.status = ListingStatus.Cancelled;\r\n\r\n        // NFT c tr v v ngi bn\r\n        IERC721(listing.token).transferFrom(address(this), msg.sender, listing.tokenId);\r\n\r\n        // Thng bo event  cancel\r\n        emit Cancel(listingId, listing.seller);\r\n    }\r\n}",
  "sourcePath": "C:\\Users\\AnhTu\\Documents\\PJ\\NFT-Market\\contracts\\Market.sol",
  "compiler": {
    "name": "solc",
    "version": "0.8.11+commit.d7f03943.Emscripten.clang"
  },
  "schemaVersion": "3.4.5",
  "updatedAt": "2022-02-25T21:21:16.893Z",
  "networkType": "ethereum",
  "devdoc": {
    "kind": "dev",
    "methods": {},
    "version": 1
  },
  "userdoc": {
    "kind": "user",
    "methods": {},
    "version": 1
  }
}