{
  "contractName": "NFT",
  "abi": [
    {
      "inputs": [],
      "stateMutability": "nonpayable",
      "type": "constructor"
    },
    {
      "anonymous": false,
      "inputs": [
        {
          "indexed": true,
          "internalType": "address",
          "name": "owner",
          "type": "address"
        },
        {
          "indexed": true,
          "internalType": "address",
          "name": "approved",
          "type": "address"
        },
        {
          "indexed": true,
          "internalType": "uint256",
          "name": "tokenId",
          "type": "uint256"
        }
      ],
      "name": "Approval",
      "type": "event"
    },
    {
      "anonymous": false,
      "inputs": [
        {
          "indexed": true,
          "internalType": "address",
          "name": "owner",
          "type": "address"
        },
        {
          "indexed": true,
          "internalType": "address",
          "name": "operator",
          "type": "address"
        },
        {
          "indexed": false,
          "internalType": "bool",
          "name": "approved",
          "type": "bool"
        }
      ],
      "name": "ApprovalForAll",
      "type": "event"
    },
    {
      "anonymous": false,
      "inputs": [
        {
          "indexed": true,
          "internalType": "address",
          "name": "from",
          "type": "address"
        },
        {
          "indexed": true,
          "internalType": "address",
          "name": "to",
          "type": "address"
        },
        {
          "indexed": true,
          "internalType": "uint256",
          "name": "tokenId",
          "type": "uint256"
        }
      ],
      "name": "Transfer",
      "type": "event"
    },
    {
      "inputs": [
        {
          "internalType": "address",
          "name": "to",
          "type": "address"
        },
        {
          "internalType": "uint256",
          "name": "tokenId",
          "type": "uint256"
        }
      ],
      "name": "approve",
      "outputs": [],
      "stateMutability": "nonpayable",
      "type": "function"
    },
    {
      "inputs": [
        {
          "internalType": "address",
          "name": "owner",
          "type": "address"
        }
      ],
      "name": "balanceOf",
      "outputs": [
        {
          "internalType": "uint256",
          "name": "",
          "type": "uint256"
        }
      ],
      "stateMutability": "view",
      "type": "function",
      "constant": true
    },
    {
      "inputs": [
        {
          "internalType": "uint256",
          "name": "tokenId",
          "type": "uint256"
        }
      ],
      "name": "getApproved",
      "outputs": [
        {
          "internalType": "address",
          "name": "",
          "type": "address"
        }
      ],
      "stateMutability": "view",
      "type": "function",
      "constant": true
    },
    {
      "inputs": [
        {
          "internalType": "address",
          "name": "owner",
          "type": "address"
        },
        {
          "internalType": "address",
          "name": "operator",
          "type": "address"
        }
      ],
      "name": "isApprovedForAll",
      "outputs": [
        {
          "internalType": "bool",
          "name": "",
          "type": "bool"
        }
      ],
      "stateMutability": "view",
      "type": "function",
      "constant": true
    },
    {
      "inputs": [],
      "name": "name",
      "outputs": [
        {
          "internalType": "string",
          "name": "",
          "type": "string"
        }
      ],
      "stateMutability": "view",
      "type": "function",
      "constant": true
    },
    {
      "inputs": [
        {
          "internalType": "uint256",
          "name": "tokenId",
          "type": "uint256"
        }
      ],
      "name": "ownerOf",
      "outputs": [
        {
          "internalType": "address",
          "name": "",
          "type": "address"
        }
      ],
      "stateMutability": "view",
      "type": "function",
      "constant": true
    },
    {
      "inputs": [
        {
          "internalType": "address",
          "name": "from",
          "type": "address"
        },
        {
          "internalType": "address",
          "name": "to",
          "type": "address"
        },
        {
          "internalType": "uint256",
          "name": "tokenId",
          "type": "uint256"
        }
      ],
      "name": "safeTransferFrom",
      "outputs": [],
      "stateMutability": "nonpayable",
      "type": "function"
    },
    {
      "inputs": [
        {
          "internalType": "address",
          "name": "from",
          "type": "address"
        },
        {
          "internalType": "address",
          "name": "to",
          "type": "address"
        },
        {
          "internalType": "uint256",
          "name": "tokenId",
          "type": "uint256"
        },
        {
          "internalType": "bytes",
          "name": "_data",
          "type": "bytes"
        }
      ],
      "name": "safeTransferFrom",
      "outputs": [],
      "stateMutability": "nonpayable",
      "type": "function"
    },
    {
      "inputs": [
        {
          "internalType": "address",
          "name": "operator",
          "type": "address"
        },
        {
          "internalType": "bool",
          "name": "approved",
          "type": "bool"
        }
      ],
      "name": "setApprovalForAll",
      "outputs": [],
      "stateMutability": "nonpayable",
      "type": "function"
    },
    {
      "inputs": [
        {
          "internalType": "bytes4",
          "name": "interfaceId",
          "type": "bytes4"
        }
      ],
      "name": "supportsInterface",
      "outputs": [
        {
          "internalType": "bool",
          "name": "",
          "type": "bool"
        }
      ],
      "stateMutability": "view",
      "type": "function",
      "constant": true
    },
    {
      "inputs": [],
      "name": "symbol",
      "outputs": [
        {
          "internalType": "string",
          "name": "",
          "type": "string"
        }
      ],
      "stateMutability": "view",
      "type": "function",
      "constant": true
    },
    {
      "inputs": [
        {
          "internalType": "uint256",
          "name": "tokenId",
          "type": "uint256"
        }
      ],
      "name": "tokenURI",
      "outputs": [
        {
          "internalType": "string",
          "name": "",
          "type": "string"
        }
      ],
      "stateMutability": "view",
      "type": "function",
      "constant": true
    },
    {
      "inputs": [
        {
          "internalType": "address",
          "name": "from",
          "type": "address"
        },
        {
          "internalType": "address",
          "name": "to",
          "type": "address"
        },
        {
          "internalType": "uint256",
          "name": "tokenId",
          "type": "uint256"
        }
      ],
      "name": "transferFrom",
      "outputs": [],
      "stateMutability": "nonpayable",
      "type": "function"
    },
    {
      "inputs": [],
      "name": "mint",
      "outputs": [
        {
          "internalType": "uint256",
          "name": "",
          "type": "uint256"
        }
      ],
      "stateMutability": "nonpayable",
      "type": "function"
    }
  ],
  "bytecode": "0x608060405260006006553480156200001657600080fd5b506040518060400160405280600881526020017f4e46542047616d650000000000000000000000000000000000000000000000008152506040518060400160405280600381526020017f4e4654000000000000000000000000000000000000000000000000000000000081525081600090805190602001906200009b929190620000bd565b508060019080519060200190620000b4929190620000bd565b505050620001d2565b828054620000cb906200019c565b90600052602060002090601f016020900481019282620000ef57600085556200013b565b82601f106200010a57805160ff19168380011785556200013b565b828001600101855582156200013b579182015b828111156200013a5782518255916020019190600101906200011d565b5b5090506200014a91906200014e565b5090565b5b80821115620001695760008160009055506001016200014f565b5090565b7f4e487b7100000000000000000000000000000000000000000000000000000000600052602260045260246000fd5b60006002820490506001821680620001b557607f821691505b60208210811415620001cc57620001cb6200016d565b5b50919050565b6126f880620001e26000396000f3fe608060405234801561001057600080fd5b50600436106100ea5760003560e01c80636352211e1161008c578063a22cb46511610066578063a22cb4651461025d578063b88d4fde14610279578063c87b56dd14610295578063e985e9c5146102c5576100ea565b80636352211e146101df57806370a082311461020f57806395d89b411461023f576100ea565b8063095ea7b3116100c8578063095ea7b31461016d5780631249c58b1461018957806323b872dd146101a757806342842e0e146101c3576100ea565b806301ffc9a7146100ef57806306fdde031461011f578063081812fc1461013d575b600080fd5b6101096004803603810190610104919061167b565b6102f5565b60405161011691906116c3565b60405180910390f35b6101276103d7565b6040516101349190611777565b60405180910390f35b610157600480360381019061015291906117cf565b610469565b604051610164919061183d565b60405180910390f35b61018760048036038101906101829190611884565b6104ee565b005b610191610606565b60405161019e91906118d3565b60405180910390f35b6101c160048036038101906101bc91906118ee565b610634565b005b6101dd60048036038101906101d891906118ee565b610694565b005b6101f960048036038101906101f491906117cf565b6106b4565b604051610206919061183d565b60405180910390f35b61022960048036038101906102249190611941565b610766565b60405161023691906118d3565b60405180910390f35b61024761081e565b6040516102549190611777565b60405180910390f35b6102776004803603810190610272919061199a565b6108b0565b005b610293600480360381019061028e9190611b0f565b6108c6565b005b6102af60048036038101906102aa91906117cf565b610928565b6040516102bc9190611777565b60405180910390f35b6102df60048036038101906102da9190611b92565b6109cf565b6040516102ec91906116c3565b60405180910390f35b60007f80ac58cd000000000000000000000000000000000000000000000000000000007bffffffffffffffffffffffffffffffffffffffffffffffffffffffff1916827bffffffffffffffffffffffffffffffffffffffffffffffffffffffff191614806103c057507f5b5e139f000000000000000000000000000000000000000000000000000000007bffffffffffffffffffffffffffffffffffffffffffffffffffffffff1916827bffffffffffffffffffffffffffffffffffffffffffffffffffffffff1916145b806103d057506103cf82610a63565b5b9050919050565b6060600080546103e690611c01565b80601f016020809104026020016040519081016040528092919081815260200182805461041290611c01565b801561045f5780601f106104345761010080835404028352916020019161045f565b820191906000526020600020905b81548152906001019060200180831161044257829003601f168201915b5050505050905090565b600061047482610acd565b6104b3576040517f08c379a00000000000000000000000000000000000000000000000000000000081526004016104aa90611ca5565b60405180910390fd5b6004600083815260200190815260200160002060009054906101000a900473ffffffffffffffffffffffffffffffffffffffff169050919050565b60006104f9826106b4565b90508073ffffffffffffffffffffffffffffffffffffffff168373ffffffffffffffffffffffffffffffffffffffff16141561056a576040517f08c379a000000000000000000000000000000000000000000000000000000000815260040161056190611d37565b60405180910390fd5b8073ffffffffffffffffffffffffffffffffffffffff16610589610b39565b73ffffffffffffffffffffffffffffffffffffffff1614806105b857506105b7816105b2610b39565b6109cf565b5b6105f7576040517f08c379a00000000000000000000000000000000000000000000000000000000081526004016105ee90611dc9565b60405180910390fd5b6106018383610b41565b505050565b60006006600081548092919061061b90611e18565b919050555061062c33600654610bfa565b600654905090565b61064561063f610b39565b82610dd4565b610684576040517f08c379a000000000000000000000000000000000000000000000000000000000815260040161067b90611ed3565b60405180910390fd5b61068f838383610eb2565b505050565b6106af838383604051806020016040528060008152506108c6565b505050565b6000806002600084815260200190815260200160002060009054906101000a900473ffffffffffffffffffffffffffffffffffffffff169050600073ffffffffffffffffffffffffffffffffffffffff168173ffffffffffffffffffffffffffffffffffffffff16141561075d576040517f08c379a000000000000000000000000000000000000000000000000000000000815260040161075490611f65565b60405180910390fd5b80915050919050565b60008073ffffffffffffffffffffffffffffffffffffffff168273ffffffffffffffffffffffffffffffffffffffff1614156107d7576040517f08c379a00000000000000000000000000000000000000000000000000000000081526004016107ce90611ff7565b60405180910390fd5b600360008373ffffffffffffffffffffffffffffffffffffffff1673ffffffffffffffffffffffffffffffffffffffff168152602001908152602001600020549050919050565b60606001805461082d90611c01565b80601f016020809104026020016040519081016040528092919081815260200182805461085990611c01565b80156108a65780601f1061087b576101008083540402835291602001916108a6565b820191906000526020600020905b81548152906001019060200180831161088957829003601f168201915b5050505050905090565b6108c26108bb610b39565b8383611119565b5050565b6108d76108d1610b39565b83610dd4565b610916576040517f08c379a000000000000000000000000000000000000000000000000000000000815260040161090d90611ed3565b60405180910390fd5b61092284848484611286565b50505050565b606061093382610acd565b610972576040517f08c379a000000000000000000000000000000000000000000000000000000000815260040161096990612089565b60405180910390fd5b600061097c6112e2565b9050600081511161099c57604051806020016040528060008152506109c7565b806109a6846112f9565b6040516020016109b79291906120e5565b6040516020818303038152906040525b915050919050565b6000600560008473ffffffffffffffffffffffffffffffffffffffff1673ffffffffffffffffffffffffffffffffffffffff16815260200190815260200160002060008373ffffffffffffffffffffffffffffffffffffffff1673ffffffffffffffffffffffffffffffffffffffff16815260200190815260200160002060009054906101000a900460ff16905092915050565b60007f01ffc9a7000000000000000000000000000000000000000000000000000000007bffffffffffffffffffffffffffffffffffffffffffffffffffffffff1916827bffffffffffffffffffffffffffffffffffffffffffffffffffffffff1916149050919050565b60008073ffffffffffffffffffffffffffffffffffffffff166002600084815260200190815260200160002060009054906101000a900473ffffffffffffffffffffffffffffffffffffffff1673ffffffffffffffffffffffffffffffffffffffff1614159050919050565b600033905090565b816004600083815260200190815260200160002060006101000a81548173ffffffffffffffffffffffffffffffffffffffff021916908373ffffffffffffffffffffffffffffffffffffffff160217905550808273ffffffffffffffffffffffffffffffffffffffff16610bb4836106b4565b73ffffffffffffffffffffffffffffffffffffffff167f8c5be1e5ebec7d5bd14f71427d1e84f3dd0314c0f7b2291e5b200ac8c7c3b92560405160405180910390a45050565b600073ffffffffffffffffffffffffffffffffffffffff168273ffffffffffffffffffffffffffffffffffffffff161415610c6a576040517f08c379a0000000000000000000000000000000000000000000000000000000008152600401610c6190612155565b60405180910390fd5b610c7381610acd565b15610cb3576040517f08c379a0000000000000000000000000000000000000000000000000000000008152600401610caa906121c1565b60405180910390fd5b610cbf6000838361145a565b6001600360008473ffffffffffffffffffffffffffffffffffffffff1673ffffffffffffffffffffffffffffffffffffffff1681526020019081526020016000206000828254610d0f91906121e1565b92505081905550816002600083815260200190815260200160002060006101000a81548173ffffffffffffffffffffffffffffffffffffffff021916908373ffffffffffffffffffffffffffffffffffffffff160217905550808273ffffffffffffffffffffffffffffffffffffffff16600073ffffffffffffffffffffffffffffffffffffffff167fddf252ad1be2c89b69c2b068fc378daa952ba7f163c4a11628f55a4df523b3ef60405160405180910390a4610dd06000838361145f565b5050565b6000610ddf82610acd565b610e1e576040517f08c379a0000000000000000000000000000000000000000000000000000000008152600401610e15906122a9565b60405180910390fd5b6000610e29836106b4565b90508073ffffffffffffffffffffffffffffffffffffffff168473ffffffffffffffffffffffffffffffffffffffff161480610e9857508373ffffffffffffffffffffffffffffffffffffffff16610e8084610469565b73ffffffffffffffffffffffffffffffffffffffff16145b80610ea95750610ea881856109cf565b5b91505092915050565b8273ffffffffffffffffffffffffffffffffffffffff16610ed2826106b4565b73ffffffffffffffffffffffffffffffffffffffff1614610f28576040517f08c379a0000000000000000000000000000000000000000000000000000000008152600401610f1f9061233b565b60405180910390fd5b600073ffffffffffffffffffffffffffffffffffffffff168273ffffffffffffffffffffffffffffffffffffffff161415610f98576040517f08c379a0000000000000000000000000000000000000000000000000000000008152600401610f8f906123cd565b60405180910390fd5b610fa383838361145a565b610fae600082610b41565b6001600360008573ffffffffffffffffffffffffffffffffffffffff1673ffffffffffffffffffffffffffffffffffffffff1681526020019081526020016000206000828254610ffe91906123ed565b925050819055506001600360008473ffffffffffffffffffffffffffffffffffffffff1673ffffffffffffffffffffffffffffffffffffffff168152602001908152602001600020600082825461105591906121e1565b92505081905550816002600083815260200190815260200160002060006101000a81548173ffffffffffffffffffffffffffffffffffffffff021916908373ffffffffffffffffffffffffffffffffffffffff160217905550808273ffffffffffffffffffffffffffffffffffffffff168473ffffffffffffffffffffffffffffffffffffffff167fddf252ad1be2c89b69c2b068fc378daa952ba7f163c4a11628f55a4df523b3ef60405160405180910390a461111483838361145f565b505050565b8173ffffffffffffffffffffffffffffffffffffffff168373ffffffffffffffffffffffffffffffffffffffff161415611188576040517f08c379a000000000000000000000000000000000000000000000000000000000815260040161117f9061246d565b60405180910390fd5b80600560008573ffffffffffffffffffffffffffffffffffffffff1673ffffffffffffffffffffffffffffffffffffffff16815260200190815260200160002060008473ffffffffffffffffffffffffffffffffffffffff1673ffffffffffffffffffffffffffffffffffffffff16815260200190815260200160002060006101000a81548160ff0219169083151502179055508173ffffffffffffffffffffffffffffffffffffffff168373ffffffffffffffffffffffffffffffffffffffff167f17307eab39ab6107e8899845ad3d59bd9653f200f220920489ca2b5937696c318360405161127991906116c3565b60405180910390a3505050565b611291848484610eb2565b61129d84848484611464565b6112dc576040517f08c379a00000000000000000000000000000000000000000000000000000000081526004016112d3906124ff565b60405180910390fd5b50505050565b606060405180602001604052806000815250905090565b60606000821415611341576040518060400160405280600181526020017f30000000000000000000000000000000000000000000000000000000000000008152509050611455565b600082905060005b6000821461137357808061135c90611e18565b915050600a8261136c919061254e565b9150611349565b60008167ffffffffffffffff81111561138f5761138e6119e4565b5b6040519080825280601f01601f1916602001820160405280156113c15781602001600182028036833780820191505090505b5090505b6000851461144e576001826113da91906123ed565b9150600a856113e9919061257f565b60306113f591906121e1565b60f81b81838151811061140b5761140a6125b0565b5b60200101907effffffffffffffffffffffffffffffffffffffffffffffffffffffffffffff1916908160001a905350600a85611447919061254e565b94506113c5565b8093505050505b919050565b505050565b505050565b60006114858473ffffffffffffffffffffffffffffffffffffffff166115ec565b156115df578373ffffffffffffffffffffffffffffffffffffffff1663150b7a026114ae610b39565b8786866040518563ffffffff1660e01b81526004016114d09493929190612634565b6020604051808303816000875af192505050801561150c57506040513d601f19601f820116820180604052508101906115099190612695565b60015b61158f573d806000811461153c576040519150601f19603f3d011682016040523d82523d6000602084013e611541565b606091505b50600081511415611587576040517f08c379a000000000000000000000000000000000000000000000000000000000815260040161157e906124ff565b60405180910390fd5b805181602001fd5b63150b7a0260e01b7bffffffffffffffffffffffffffffffffffffffffffffffffffffffff1916817bffffffffffffffffffffffffffffffffffffffffffffffffffffffff1916149150506115e4565b600190505b949350505050565b6000808273ffffffffffffffffffffffffffffffffffffffff163b119050919050565b6000604051905090565b600080fd5b600080fd5b60007fffffffff0000000000000000000000000000000000000000000000000000000082169050919050565b61165881611623565b811461166357600080fd5b50565b6000813590506116758161164f565b92915050565b60006020828403121561169157611690611619565b5b600061169f84828501611666565b91505092915050565b60008115159050919050565b6116bd816116a8565b82525050565b60006020820190506116d860008301846116b4565b92915050565b600081519050919050565b600082825260208201905092915050565b60005b838110156117185780820151818401526020810190506116fd565b83811115611727576000848401525b50505050565b6000601f19601f8301169050919050565b6000611749826116de565b61175381856116e9565b93506117638185602086016116fa565b61176c8161172d565b840191505092915050565b60006020820190508181036000830152611791818461173e565b905092915050565b6000819050919050565b6117ac81611799565b81146117b757600080fd5b50565b6000813590506117c9816117a3565b92915050565b6000602082840312156117e5576117e4611619565b5b60006117f3848285016117ba565b91505092915050565b600073ffffffffffffffffffffffffffffffffffffffff82169050919050565b6000611827826117fc565b9050919050565b6118378161181c565b82525050565b6000602082019050611852600083018461182e565b92915050565b6118618161181c565b811461186c57600080fd5b50565b60008135905061187e81611858565b92915050565b6000806040838503121561189b5761189a611619565b5b60006118a98582860161186f565b92505060206118ba858286016117ba565b9150509250929050565b6118cd81611799565b82525050565b60006020820190506118e860008301846118c4565b92915050565b60008060006060848603121561190757611906611619565b5b60006119158682870161186f565b93505060206119268682870161186f565b9250506040611937868287016117ba565b9150509250925092565b60006020828403121561195757611956611619565b5b60006119658482850161186f565b91505092915050565b611977816116a8565b811461198257600080fd5b50565b6000813590506119948161196e565b92915050565b600080604083850312156119b1576119b0611619565b5b60006119bf8582860161186f565b92505060206119d085828601611985565b9150509250929050565b600080fd5b600080fd5b7f4e487b7100000000000000000000000000000000000000000000000000000000600052604160045260246000fd5b611a1c8261172d565b810181811067ffffffffffffffff82111715611a3b57611a3a6119e4565b5b80604052505050565b6000611a4e61160f565b9050611a5a8282611a13565b919050565b600067ffffffffffffffff821115611a7a57611a796119e4565b5b611a838261172d565b9050602081019050919050565b82818337600083830152505050565b6000611ab2611aad84611a5f565b611a44565b905082815260208101848484011115611ace57611acd6119df565b5b611ad9848285611a90565b509392505050565b600082601f830112611af657611af56119da565b5b8135611b06848260208601611a9f565b91505092915050565b60008060008060808587031215611b2957611b28611619565b5b6000611b378782880161186f565b9450506020611b488782880161186f565b9350506040611b59878288016117ba565b925050606085013567ffffffffffffffff811115611b7a57611b7961161e565b5b611b8687828801611ae1565b91505092959194509250565b60008060408385031215611ba957611ba8611619565b5b6000611bb78582860161186f565b9250506020611bc88582860161186f565b9150509250929050565b7f4e487b7100000000000000000000000000000000000000000000000000000000600052602260045260246000fd5b60006002820490506001821680611c1957607f821691505b60208210811415611c2d57611c2c611bd2565b5b50919050565b7f4552433732313a20617070726f76656420717565727920666f72206e6f6e657860008201527f697374656e7420746f6b656e0000000000000000000000000000000000000000602082015250565b6000611c8f602c836116e9565b9150611c9a82611c33565b604082019050919050565b60006020820190508181036000830152611cbe81611c82565b9050919050565b7f4552433732313a20617070726f76616c20746f2063757272656e74206f776e6560008201527f7200000000000000000000000000000000000000000000000000000000000000602082015250565b6000611d216021836116e9565b9150611d2c82611cc5565b604082019050919050565b60006020820190508181036000830152611d5081611d14565b9050919050565b7f4552433732313a20617070726f76652063616c6c6572206973206e6f74206f7760008201527f6e6572206e6f7220617070726f76656420666f7220616c6c0000000000000000602082015250565b6000611db36038836116e9565b9150611dbe82611d57565b604082019050919050565b60006020820190508181036000830152611de281611da6565b9050919050565b7f4e487b7100000000000000000000000000000000000000000000000000000000600052601160045260246000fd5b6000611e2382611799565b91507fffffffffffffffffffffffffffffffffffffffffffffffffffffffffffffffff821415611e5657611e55611de9565b5b600182019050919050565b7f4552433732313a207472616e736665722063616c6c6572206973206e6f74206f60008201527f776e6572206e6f7220617070726f766564000000000000000000000000000000602082015250565b6000611ebd6031836116e9565b9150611ec882611e61565b604082019050919050565b60006020820190508181036000830152611eec81611eb0565b9050919050565b7f4552433732313a206f776e657220717565727920666f72206e6f6e657869737460008201527f656e7420746f6b656e0000000000000000000000000000000000000000000000602082015250565b6000611f4f6029836116e9565b9150611f5a82611ef3565b604082019050919050565b60006020820190508181036000830152611f7e81611f42565b9050919050565b7f4552433732313a2062616c616e636520717565727920666f7220746865207a6560008201527f726f206164647265737300000000000000000000000000000000000000000000602082015250565b6000611fe1602a836116e9565b9150611fec82611f85565b604082019050919050565b6000602082019050818103600083015261201081611fd4565b9050919050565b7f4552433732314d657461646174613a2055524920717565727920666f72206e6f60008201527f6e6578697374656e7420746f6b656e0000000000000000000000000000000000602082015250565b6000612073602f836116e9565b915061207e82612017565b604082019050919050565b600060208201905081810360008301526120a281612066565b9050919050565b600081905092915050565b60006120bf826116de565b6120c981856120a9565b93506120d98185602086016116fa565b80840191505092915050565b60006120f182856120b4565b91506120fd82846120b4565b91508190509392505050565b7f4552433732313a206d696e7420746f20746865207a65726f2061646472657373600082015250565b600061213f6020836116e9565b915061214a82612109565b602082019050919050565b6000602082019050818103600083015261216e81612132565b9050919050565b7f4552433732313a20746f6b656e20616c7265616479206d696e74656400000000600082015250565b60006121ab601c836116e9565b91506121b682612175565b602082019050919050565b600060208201905081810360008301526121da8161219e565b9050919050565b60006121ec82611799565b91506121f783611799565b9250827fffffffffffffffffffffffffffffffffffffffffffffffffffffffffffffffff0382111561222c5761222b611de9565b5b828201905092915050565b7f4552433732313a206f70657261746f7220717565727920666f72206e6f6e657860008201527f697374656e7420746f6b656e0000000000000000000000000000000000000000602082015250565b6000612293602c836116e9565b915061229e82612237565b604082019050919050565b600060208201905081810360008301526122c281612286565b9050919050565b7f4552433732313a207472616e736665722066726f6d20696e636f72726563742060008201527f6f776e6572000000000000000000000000000000000000000000000000000000602082015250565b60006123256025836116e9565b9150612330826122c9565b604082019050919050565b6000602082019050818103600083015261235481612318565b9050919050565b7f4552433732313a207472616e7366657220746f20746865207a65726f2061646460008201527f7265737300000000000000000000000000000000000000000000000000000000602082015250565b60006123b76024836116e9565b91506123c28261235b565b604082019050919050565b600060208201905081810360008301526123e6816123aa565b9050919050565b60006123f882611799565b915061240383611799565b92508282101561241657612415611de9565b5b828203905092915050565b7f4552433732313a20617070726f766520746f2063616c6c657200000000000000600082015250565b60006124576019836116e9565b915061246282612421565b602082019050919050565b600060208201905081810360008301526124868161244a565b9050919050565b7f4552433732313a207472616e7366657220746f206e6f6e20455243373231526560008201527f63656976657220696d706c656d656e7465720000000000000000000000000000602082015250565b60006124e96032836116e9565b91506124f48261248d565b604082019050919050565b60006020820190508181036000830152612518816124dc565b9050919050565b7f4e487b7100000000000000000000000000000000000000000000000000000000600052601260045260246000fd5b600061255982611799565b915061256483611799565b9250826125745761257361251f565b5b828204905092915050565b600061258a82611799565b915061259583611799565b9250826125a5576125a461251f565b5b828206905092915050565b7f4e487b7100000000000000000000000000000000000000000000000000000000600052603260045260246000fd5b600081519050919050565b600082825260208201905092915050565b6000612606826125df565b61261081856125ea565b93506126208185602086016116fa565b6126298161172d565b840191505092915050565b6000608082019050612649600083018761182e565b612656602083018661182e565b61266360408301856118c4565b818103606083015261267581846125fb565b905095945050505050565b60008151905061268f8161164f565b92915050565b6000602082840312156126ab576126aa611619565b5b60006126b984828501612680565b9150509291505056fea2646970667358221220fcd5a3ac10e83c1ba81d24350a11d654fcf33e7910971aa0e54d9e333ca9915164736f6c634300080b0033",
  "immutableReferences": {},
  "source": "pragma solidity >= 0.7.0 < 0.9.0;\r\n\r\nimport \"../node_modules/@openzeppelin/contracts/token/ERC721/ERC721.sol\";\r\n\r\ncontract NFT is ERC721 {\r\n    constructor() ERC721(\"NFT Game\", \"NFT\") {}\r\n\r\n    uint private _tokenId = 0;\r\n    mapping (uint => address) tokens;\r\n\r\n\tfunction mint() external returns (uint) {\r\n\t\t_tokenId++;\r\n\t\t_mint(msg.sender, _tokenId);\r\n\t\treturn _tokenId;\r\n\t}\r\n}",
  "sourcePath": "C:\\Users\\AnhTu\\Documents\\PJ\\NFT-Market\\contracts\\NFT.sol",
  "compiler": {
    "name": "solc",
    "version": "0.8.11+commit.d7f03943.Emscripten.clang"
  },
  "schemaVersion": "3.4.5",
  "updatedAt": "2022-02-25T21:56:00.138Z",
  "networkType": "ethereum",
  "devdoc": {
    "kind": "dev",
    "methods": {
      "approve(address,uint256)": {
        "details": "See {IERC721-approve}."
      },
      "balanceOf(address)": {
        "details": "See {IERC721-balanceOf}."
      },
      "getApproved(uint256)": {
        "details": "See {IERC721-getApproved}."
      },
      "isApprovedForAll(address,address)": {
        "details": "See {IERC721-isApprovedForAll}."
      },
      "name()": {
        "details": "See {IERC721Metadata-name}."
      },
      "ownerOf(uint256)": {
        "details": "See {IERC721-ownerOf}."
      },
      "safeTransferFrom(address,address,uint256)": {
        "details": "See {IERC721-safeTransferFrom}."
      },
      "safeTransferFrom(address,address,uint256,bytes)": {
        "details": "See {IERC721-safeTransferFrom}."
      },
      "setApprovalForAll(address,bool)": {
        "details": "See {IERC721-setApprovalForAll}."
      },
      "supportsInterface(bytes4)": {
        "details": "See {IERC165-supportsInterface}."
      },
      "symbol()": {
        "details": "See {IERC721Metadata-symbol}."
      },
      "tokenURI(uint256)": {
        "details": "See {IERC721Metadata-tokenURI}."
      },
      "transferFrom(address,address,uint256)": {
        "details": "See {IERC721-transferFrom}."
      }
    },
    "version": 1
  },
  "userdoc": {
    "kind": "user",
    "methods": {},
    "version": 1
  }
}